:020000040800F2
:10000000404B00209D010008394C0008C33F000808
:10001000354C000815100008C95700080000000002
:1000200000000000000000000000000005010008C2
:10003000D1130008000000004901000841510008E8
:10004000B7010008B7010008B7010008B7010008B0
:10005000B7010008B7010008B7010008B7010008A0
:10006000B7010008B7010008B7010008B701000890
:10007000B7010008B7010008B7010008B701000880
:10008000B7010008B7010008B7010008B701000870
:10009000B7010008B7010008B7010008B701000860
:1000A000B7010008D9510008B7010008B7010008DE
:1000B000B7010008B7010008B7010008B701000840
:1000C000B7010008B7010008B7010008B701000830
:1000D000B7010008A9570008B9570008B701000880
:1000E000B7010008B7010008B7010008DFF810D019
:1000F00000F0B0FC0048004795650008AFF30080B1
:10010000404B0020224B19680868B0E8F00F80F3DC
:100110000988BFF36F8F4FF0000080F311884EF015
:100120000D0E70470000000006480068006880F36C
:10013000088862B661B6BFF34F8FBFF36F8F00DFE1
:1001400000BF00BF08ED00E0EFF30980BFF36F8F41
:100150000F4B1A6820E9F00F106008B54FF05000FF
:1001600080F31188BFF34F8FBFF36F8F06F0B0FE9F
:100170004FF0000080F31188BDE808401968086856
:10018000B0E8F00F80F30988BFF36F8F704700BFAE
:1001900070000020EFF3058070470000064880479C
:1001A00006480047FEE7FEE7FEE7FEE7FEE7FEE75C
:1001B000FEE7FEE7FEE7FEE7D5510008ED00000888
:1001C000202A04DB203A21FA02F00021704721FAAC
:1001D00002F3D040C2F12002914008431946704713
:1001E000D2B201E000F8012B491EFBD27047002279
:1001F000F6E710B513460A4604461946FFF7F0FF26
:10020000204610BDF0B480EA0102D40F4200B2EBE8
:10021000410F02D20246084611464A0042D0C30DA1
:10022000DDB2C1F3C752AD1A202D35DAC1F3160184
:1002300041F4000204B15242C5F1200602FA06F16F
:100240002A411044B3EBD05F23D0C4B1012DA0EB01
:10025000C35009DCF0BC4FF0004202EAC352DBB2EB
:1002600000F5000000F022BB400000F1807000EBC0
:10027000C350A0F1807040EAD170490009E04908FC
:1002800041EAC071A0EBC35000F50000400800EB4C
:10029000C350F0BC00F001BB6142012202EB4101FE
:1002A000001BF6E7F0BC704781F00041AAE780F040
:1002B0000040A7E780EA010210B502F000434000C9
:1002C00022D04A001FD0010E01EB1261C0F356008C
:1002D000C2F3560240F4000042F40002A0FB0220E8
:1002E00000047F39140400D0401C50EA124001D4AD
:1002F0004000491EC2B20C0604EBD010401C40085E
:10030000802A02D003E0002010BD20F00100002967
:1003100000DA0020184310BD30B480EA010202F078
:10032000004530F0004221F0004013D090B1C30DE1
:10033000D40DC2F31601C0F31600E41A41F4000113
:1003400040F400027D34914201D3641C00E0490076
:10035000002C02DA30BC002070474FF4000000236C
:10036000914201D3891A034340084FEA4101F7D172
:1003700051B1914202D14FF0004105E002D24FF05D
:10038000010101E06FF0010103EBC450284430BCCF
:1003900000F083BA2DE9FE4F804681EA0300C00FCA
:1003A0000C46009021F0004123F00045B8EB02001C
:1003B000A94105D24046214690461C460B460246BE
:1003C00023F00040104347D0270DC7F30A00C3F3C2
:1003D0000A510290401A019040286BDAC3F31300CF
:1003E00040F4801B0098924620B10023D2EB030A10
:1003F00063EB0B0B01985946C0F14002504600F0E8
:100400002BFA06460D4650465946019A00F033FA3B
:1004100010EB08006141002487EA115284EAE77377
:100420001A4340D0009A62B3019A012A4FEA075258
:1004300015DC001B61EB02014FF0004202EA07529B
:10044000CDE90042001C41F5801132462B4600F0F8
:100450006AFA03B0BDE8F08F40462146F9E7001B79
:1004600061EB0201001C41F5801300185B4120186C
:10047000A2F5001747EB030140EAD570B6196D41AC
:1004800011E06D084FEA360645EAC0754FEA07529B
:10049000001B61EB0201001C41F5801149084FEA85
:1004A00030000019514132462B4603B0BDE8F04FF1
:1004B00000F02ABA0098012240000023D0EB02028B
:1004C00063EBE073009821464FEAE074B8EB00005C
:1004D00061EB0401E9E783F000435BE781F0004151
:1004E00058E72DE9FE4F81EA030404F0004421F0AF
:1004F000004100944FF0000B23F0004350EA010448
:100500005ED052EA03045BD0C3F30A54C1F30A5528
:100510002C44A4F2F3340194A0FB0254C1F3130160
:1005200041F48011C3F3130343F4801301FB02442D
:1005300000FB034E840A970A44EA815447EA835732
:10054000A4FB076802958D0A05FB07854FEA932CEB
:1005500004FB0C542705029D4FEA065847EA16375C
:10056000B5EB08056EEB070C870E920E47EA811774
:1005700042EA8312A7FB0201B6EB0B0164EB000415
:100580002B0D43EA0C335E1844EB1C50DA465146FF
:10059000E7FB0201C5F313044FEA0B3343EA14539C
:1005A0004FEA0432019C43EA0603A4F10C040294CE
:1005B000009CCDE900B400F0B6F903B0BDE8F08FBF
:1005C00000200146F9E72DE9F04D81EA030404F02B
:1005D000004B21F0004514464FF0000A23F0004183
:1005E00050EA050220D054EA01021DD0C5F30A5793
:1005F0000246C5F31303C1F31300C1F30A5640F4D6
:10060000801543F48013A7EB0608101BD64608F2AA
:10061000FD3873EB050002D308F1010801E09218E0
:100620005B41B8F1000F03DA00200146BDE8F08D10
:1006300000204FF48011064684460EE0171B73EB32
:10064000050705D3121B63EB050306434CEA010CB7
:1006500049084FEA300092185B4150EA0107EDD19A
:1006600052EA030012D082EA040083EA050108433B
:1006700005D0101BAB4106D20122002306E0002268
:100680004FF0004302E06FF0010253101AEB060036
:100690004CEB085110EB0A0041EB0B01BDE8F04DAB
:1006A00000F032B9C10F80EAE0700844CA0796230F
:1006B000002100F0FBB896230022114600F0F6B8A6
:1006C0000EB5C10F80EAE0700844CA07002140F26D
:1006D00033438DE80E000A460B4600F024F903B0C0
:1006E00000BD0EB540F2334102910021CDE9001169
:1006F0000A460B4600F017F903B000BD00F00042B7
:1007000020F00040C10DC0F3160040F400007F2926
:1007100001DA00207047962903DCC1F19601C84038
:1007200001E096398840002AF4D04042704770B505
:10073000C1F30A5201F000450024C1F3130140F255
:10074000FF3341F480119A4201DA002070BD40F27B
:1007500033439A42A2F2334203DC5242FFF730FDA8
:1007600000E090402C43F1D0404270BD00F00042C8
:1007700030F000400AD0C10D01F56071C0F31600E1
:1007800042EA0151C2084007114370470020014668
:10079000704701F0004330B421F0004150EA0102FB
:1007A00006D00A0DA2F56072C1F31301002A02DC23
:1007B00030BC00207047440F44EAC104C100E01877
:1007C00030BC00EBC25000F068B830B50B460146B3
:1007D00000202022012409E021FA02F59D4205D3E0
:1007E00003FA02F5491B04FA02F52844151EA2F18A
:1007F0000102F1DC30BD2DE9F05F05460020924694
:100800009B4688460646814640241BE028464146D2
:1008100047462246FFF7D4FC53465A46C01A914138
:1008200010D311461846224600F016F82D1A67EB31
:1008300001084F4622460120002100F00DF817EB79
:1008400000094E41201EA4F10104DFDC4846314678
:100850002A464346BDE8F09F202A04DB203A00FAEE
:1008600002F1002070479140C2F1200320FA03F307
:10087000194390407047202A06DBCB17203A41FAF3
:1008800002F043EAE07306E041FA02F3D040C2F11D
:10089000200291400843194670470029A8BF7047BD
:1008A000401C490008BF20F00100704710B4B0FAA6
:1008B00080FC00FA0CF050EA010404BF10BC704741
:1008C00049B1CCF1200421FA04F411FA0CF118BF5B
:1008D000012121430843A3EB0C01CB1D4FEA00612A
:1008E0004FEA102042BF002010BC704700EBC350FD
:1008F00010440029A4BF10BC7047401C490008BF29
:1009000020F0010010BC704710B5141E73F10004F4
:1009100008DA401C41F1000192185B411A4301D1F1
:1009200020F0010010BD2DE9F04D92469B4611B11B
:10093000B1FA81F202E0B0FA80F220329046FFF77D
:100940008BFF04460F4640EA0A0041EA0B0153467A
:100950005A46084313D0114653EA010019D0C8F192
:1009600040025046FFF72CFC05460E4650465946BD
:100970004246FFF771FF084305D0012004E02046FE
:100980003946BDE8F08D0020054346EAE0762C4369
:1009900037430A986305E40AA0EB08000022FD0A29
:1009A00044EA47540A3002D500200146E9E7010530
:1009B00010196941DDE9084500196941BDE8F04DAC
:1009C000A2E7C1F30A52C1F3130140F2FF3341F42D
:1009D00080119A4202DA00200146704740F2334308
:1009E0009A42A2F2334202DC5242FFF7E9BBFFF720
:1009F00033BF000030B5041E71F1000404DB4FF07A
:100A00000044404264EB0101141E73F1000405DB55
:100A10001C464FF00043524263EB04038B4208BF75
:100A2000824230BD30B5041E71F1000404DB4FF08A
:100A30000044404264EB0101141E73F1000405DB25
:100A40001C464FF00043524263EB0403994208BF37
:100A5000904230BD064C074D06E0E06840F00103CF
:100A600094E8070098471034AC42F6D3FFF742FBF6
:100A7000B8930008D893000870B521F000430343F1
:100A80000CD0C1F30A550024D5EB040564EB040334
:100A9000D617AD1AB34102DB0020014670BD201805
:100AA00041EB025170BD30B58C1810F8012B12F0DB
:100AB0000F0301D110F8013B120906D110F8012BE8
:100AC00003E010F8015B01F8015B5B1EF9D101E066
:100AD00001F8013B521EFBD1A142E6D3002030BDFC
:100AE00070B5044600252068806800F0010018B346
:100AF0002068806820F001002168886001F0C0F85B
:100B0000054613E001F0BCF8401B02280ED920680E
:100B1000806800F0010048B1A06A40F01000A062B7
:100B2000E06A40F00100E062012070BD206880684A
:100B300000F001000028E5D10020F6E738B50446B2
:100B40000025002000902068806800F0010078BB3C
:100B50002068806840F001002168886019480068BA
:100B60001949B0FBF1F0009002E00098401E00909F
:100B700000980028F9D101F083F8054619E001F04A
:100B80007FF8401B022814D92068806800F001001B
:100B900078B9A06A40F01000A062E06A40F001005D
:100BA000E06200BF002084F8240000BF012038BDAF
:100BB00005E02068806800F001000028DFD00020F8
:100BC000F5E700001000002040420F002DE9F84F2B
:100BD00000BF2E4800F08EFD2C4800F0ADFC0090C8
:100BE000FFF77FFD80464FF06632294BFFF779FC17
:100BF00006460022274BFFF7E6FC04460022264B60
:100C0000FFF76FFC82468B4652465B4623A1254880
:100C100004F0DCFD01201023224A00210090202056
:100C200004F0A8F9204821A10268214804F0CEFD73
:100C300020481EA10268204804F0C8FD01201023AE
:100C40001B4A19460090182004F094F90120102343
:100C5000194A20210090182004F08CF917480068E8
:100C6000FFF784FD044622460B4615A1164804F002
:100C7000ADFD01201023144A30210090084604F0F5
:100C800079F904F0B3F8BDE8F88F000040010020C6
:100C900066660A4000FEAF400000104025332E314A
:100CA00066000000EC000020E4000020253664000F
:100CB000F1000020E8000020F800002018000020CB
:100CC00025352E3166000000FF0000202DE9FC5F75
:100CD000274A2849284803F05DFC284A2849294822
:100CE00003F07AFC2248B0F90000FFF7E9FC064661
:100CF0000F462148B0F90000FFF7E2FC804632467B
:100D00003B4605F079FB044600221F4BFFF7E9FB49
:100D100082461E4A1E4BFFF756FCCDE90001FFF745
:100D200038FD1C4908601648B0F900004042FFF742
:100D3000C7FC06464FF06632174BFFF744FC0446EB
:100D4000FFF727FD1549086008460168114800684B
:100D500000F062F9022003F0FDFB11490860032056
:100D600003F0F8FB40420F490860BDE8FC9F00001B
:100D7000DA000020D8000020D6000020D400002097
:100D8000D2000020D000002000806640F1D4C8537B
:100D9000FB210940DC00002066663040E0000020B6
:100DA000E4000020E80000202DE9F843002400259D
:100DB00000260027A0463748B0F9000000903648CA
:100DC000036836480268364801683648006800F013
:100DD0005FFA04463448007818B13220334908607D
:100DE0000AE03348007820B16FF031002F490860E5
:100DF00002E000202D4908602C48006800902D4832
:100E000003682D4802682D4801682D48006800F0ED
:100E100073FA05462B48007828B12B48006814382F
:100E20002949086013E02948007828B1264800685D
:100E30001430254908600AE000202349086024484E
:100E4000B0F900102348006800F046FA06461E4834
:100E50000068B0F5FA7F04DD4FF4FA701A490860B3
:100E600007E01948006810F5FA7F02DA1A481649B7
:100E70000860601930441449096847186019801BDC
:100E800011490968A0EB01084146384603F0C6FC49
:100E9000BDE8F883D20000201001002018000020D7
:100EA0000C01002008010020200100202401002066
:100EB00021010020E8000020E400002018010020AB
:100EC000140100202201002028010020230100201D
:100ED000D40000201C0100200CFEFFFF08B506F026
:100EE0007FF9009007E0FFF771FE00BF32216846EE
:100EF00006F086F800BFF6E71CB506F071F9019020
:100F000010E0FFF7E3FE00200223024601460090B6
:100F10000548006806F0AEF800BF0A2101A806F0F7
:100F20006FF800BFEDE70000340100201CB5064853
:100F3000012100238022CDE9001004A1074806F01A
:100F40002BF805F087FF1CBD2C0100204170705F5D
:100F50005461736B5F53746172740000750F000805
:100F600007E04FF0FF320121002005F027FEFFF7D8
:100F70001BFFF6E71CB5044605F0AEFE1148032141
:100F800000238022CDE900100FA1144806F004F8D8
:100F90001348032100238022CDE9001011A1154838
:100FA00005F0FAFF1448032100238022CDE9001048
:100FB00012A1174805F0F0FF002005F0E1FE05F052
:100FC0009DFE1CBD300100204170705F5461736B49
:100FD0005F4765744461746100000000F90E000809
:100FE000340100204170705F5461736B5F5049445D
:100FF00000000000610F0008380100204170705FA0
:101000005461736B5F446973706C61790000000018
:10101000DD0E000800BFFEE72DE9F04105460C4655
:10102000894801682046FFF73FF90746874801686D
:101030003846FFF73FF90646854801683046FFF716
:10104000E1F8834908608348416883480068FFF7F6
:101050002BF906467F4881683046FFF725F97F491E
:1010600008607C48C06880F0004048607948C068EB
:1010700080F0004088607A480068C860086873495A
:101080000968FFF717F90646724801683046FFF70E
:10109000B9F870490860714948686C490968FFF7F8
:1010A00009F906466B4841683046FFF7ABF86949D5
:1010B00048606A49886865490968FFF7FBF8064691
:1010C000644881683046FFF79DF86249886063494B
:1010D000C8685E490968FFF7EDF806465D48C168D3
:1010E0003046FFF78FF85B49C860594801682846C9
:1010F000FFF7DAF85B4908605B480078FFF7DBFA36
:101100000646544801683046FFF7D4F8574908604E
:1011100055480078FFF7CFFA06464E4881683046BA
:10112000FFF7C8F8524908604F480078FFF7C3FA44
:1011300007464E4801683846FFF7BCF806464D485A
:1011400001683046FFF75EF84B49086008460168C1
:1011500046480068FFF7E0F84849086046480168DB
:1011600043480068FFF7D8F8454908603F480068E1
:10117000444908603C480078FFF79DFA0646354828
:1011800041683046FFF796F83F4908603D480168DE
:101190003A480068FFF78EF806462E480168304648
:1011A000FFF785F82B490860374801683348006825
:1011B000FFF780F80646274841683046FFF777F882
:1011C000244948602F4801682D480068FFF772F8ED
:1011D0000646204881683046FFF769F81D49886057
:1011E0002948016826480068FFF764F80646194850
:1011F000C1683046FFF75BF81649C86019480168B6
:101200001E480068FFF756F8064611480168304648
:10121000FEF7F8FF0E490860124801681848006898
:10122000FFF748F80646084801683046FEF7EAFF2F
:1012300005490860084601682046FFF735F813495C
:101240000860BDE8F0810000340000202C00002080
:101250001800002058000020200000204C0800202A
:101260002400002038000020300000203C00002036
:1012700040000020280000204400002048000020FA
:101280004C00002050000020540000201C000020D2
:101290002DE9FC5F06460F4614461D46DDF83080FA
:1012A0004FF0000929462046FEF7FEFF81464046E2
:1012B000FFF7F8F939460090FEF7FCFF83464946F0
:1012C0003046FEF7F7FF59460190FEF79BFF824636
:1012D000FFF714FABDE8FC9F2DE9F04104460D46E6
:1012E0002846FFF7DFF907462146FEF7E3FF0646EB
:1012F000FFF704FABDE8F0812DE9FF4F85B0054600
:1013000016469946002406EB090004462046FFF7DE
:10131000D7F90746284A294BFFF7E3F8CDE9020140
:1013200027480068FFF7CCF90746234A254BFFF70B
:10133000D8F8CDE90001DDE90223FFF72BF882465A
:10134000FFF7F5F904461E4804601F480068204472
:101350001D490860084601681298081A1A49086071
:101360000846006842F21071884203DD08461649BB
:10137000086007E0144800681449884202DA084609
:101380001149086010480068FFF78CF983460699F8
:10139000FEF790FF80462046FFF784F983462946F2
:1013A000FEF788FF82464146FEF72CFF0746FFF70F
:1013B000A5F909B0BDE8F08F9A9999999999C93F13
:1013C0006C0000209999E93F68000020F0D8FFFFE9
:1013D000704772B600BFFEE738B502460023002012
:1013E000009000BF92F82400012801D1022038BDEE
:1013F000012082F8240000BF4868072812D2106834
:10140000406B0C79641E04EB84051F24AC40A043A0
:101410000D796D1E05EB85050C68AC402043146802
:10142000606327E048680D2812D21068006B0C79C1
:10143000E41F04EB84051F24AC40A0430D79ED1F8D
:1014400005EB85050C68AC4020431468206311E06F
:101450001068C06A0C790D3C04EB84051F24AC4075
:10146000A0430D790D3D05EB85050C68AC4020438C
:101470001468E06208680A2812D31068C0680C7803
:101480000A3C04EB44050724AC40A0430D780A3D18
:1014900005EB45058C68AC4020431468E0600FE024
:1014A000106800690C7804EB44050724AC40A043A5
:1014B0000D7805EB45058C68AC402043146820612D
:1014C0000868102802D00868112827D1174C106826
:1014D000A0421ED11068806800F40000F0B91068C6
:1014E000806840F400001468A0600868102815D1D6
:1014F0000F4800680F4CB0FBF4F000EB8000400098
:10150000009002E00098401E009000980028F9D159
:1015100004E0906A40F020009062012300BF0020A8
:1015200082F8240000BF184661E700000024014053
:101530001000002040420F0001460868C06C704750
:101540002DE9F0410446002700250026A84614B9DD
:101550000120BDE8F081A06810B1207D00B100BF7E
:10156000A06A30B90020E06284F82400204600F030
:1015700089F82046FFF7B4FA0746A06A00F0100089
:10158000002873D1002F71D1A06A20F4885040F058
:101590000200A062E16960680843217B40EA4100E3
:1015A0000643A068B0F5807F02D0A068012802D170
:1015B0004FF4807000E000200543207D012811D108
:1015C000207B38B9A069401E4FF4006141EA4030E9
:1015D000054307E0A06A40F02000A062E06A40F006
:1015E0000100E0622068406820F4694028432168D7
:1015F000486020688068214908403043216888603D
:10160000A068B0F5807F02D0A068012802D14FF415
:10161000807000E00020B0F5807F03D1208A401E5A
:101620004FEA00582068C06A20F4700040EA0800C1
:101630002168C8622068806811490840B04208D11A
:101640000020E062A06A20F0020040F00100A062E9
:1016500011E0A06A20F0020040F01000A062E06AF1
:1016600040F00100E062012705E0FFE7A06A40F0DA
:101670001000A062012738466BE70000FDF7E1FF8C
:10168000FE0E1FFF10B586B00446002002900390A6
:101690000490059014492068884222D100BF134865
:1016A000806940F40070114988610846806900F43F
:1016B0000070019000BF00BF00BF0846806940F085
:1016C000040088610846806900F00400019000BFB2
:1016D00000BF022002900320039002A9044800F0FA
:1016E00039F906B010BD000000240140001002408E
:1016F0000008014070B50446002500BF94F824009E
:10170000012801D1022070BD012084F8240000BF0F
:101710002046FFF713FA0546002D77D1A06A40F264
:101720000121884340F48070A0623C4920688842CF
:1017300008D13B48006800F4702008B9012002E09D
:10174000002000E0012078B1A06A20F48010A0629F
:101750002068406800F4806000B3A06A20F4005064
:1017600040F48050A06219E0A06A40F48010A062AA
:101770002B49091F2068884203D0284920688842E5
:1017800004D12748006800F4806000E0002028B100
:10179000A06A20F4005040F48050A062A06A00F4D7
:1017A000805020B1E06A20F00600E06201E00020F5
:1017B000E06200BF002084F8240000BFC01E216842
:1017C00008602068806800F46020B0F5602F16D1B2
:1017D00012492068884208D11148006800F470203E
:1017E00008B9012002E0002000E0012038B12068A3
:1017F000806840F4A000216888600CE006E0206862
:10180000806840F480102168886004E000BF0020F8
:1018100084F8240000BF284675E700000028014036
:10182000042401400146002291F82100022808D03A
:101830000420886300BF002081F8200000BF012041
:1018400070470868006820F00E000B681860086890
:10185000006820F001000B68186091F8403001200A
:101860009840CB6B5860012081F8210000BF002018
:1018700081F8200000BF1046E2E7000070B5044682
:10188000002594F82100022803D00420A06301253C
:1018900048E02068006820F00E0021680860206899
:1018A000006820F00100216808601F492068884214
:1018B00001D1012026E01C4914312068884201D161
:1018C00010201FE0184928312068884201D1801576
:1018D00018E015493C312068884201D1801411E09C
:1018E000114950312068884202D14FF4803009E01C
:1018F0000D4964312068884202D14FF4801001E024
:101900004FF08070084908394860012084F82100B0
:1019100000BF002084F8200000BF606B10B120469B
:10192000616B8847284670BD0800024070B50446C8
:1019300000F0A6F906462546681C10B10448007858
:10194000054400BF00F09CF9801BA842FAD370BD8B
:101950000C0000202DE9F8470346002294466EE172
:101960004FF0010808FA02F4D1F8008008EA0400F8
:10197000A0427DD1DFF8DCA2D1F80480A8EB0A09EF
:10198000D0453AD014DCB8F1030F50D009DCB8F1DF
:10199000000F31D0B8F1010F1CD0B8F1020F49D1BE
:1019A00020E0B8F1110F18D0B8F1120F42D11EE0AB
:1019B000B9F5881F25D006DCB9F5803F20D0B9F5F0
:1019C000801F37D11AE0B9F5001F18D0B9F5041FF0
:1019D00030D117E0D1F80CC02DE0D1F80C8008F11F
:1019E000040C28E0D1F80C8008F1080C23E0D1F8B1
:1019F0000C8008F10C0C1EE000BF00BF00BF00BF50
:101A000000BF00BFD1F80880B8F1000F02D14FF03D
:101A1000040C0BE0D1F80880B8F1010F03D14FF0AE
:101A2000080C1C6102E04FF0080C5C6103E04FF011
:101A3000000C00E000BF00BFFF2801D8984601E07D
:101A400003F104084646FF2802D84FEA820803E063
:101A5000A2F108084FEA88084746D6F800804FF000
:101A60000F0909FA07F928EA09080CFA07F900E052
:101A700088E048EA0908C6F80080D1F8048008F038
:101A80008058B8F1805F7DD100BFDFF8CC81D8F8F5
:101A9000188048F00108DFF8C091C9F81880C846DE
:101AA000D8F8188008F00108CDF8008000BF00BF0A
:101AB0004FEAB9384FEA920958F829504FEA82782C
:101AC0004FEA18794FF00F0808FA09F825EA0805D7
:101AD000DFF88881434502D14FF0000816E0DFF8B7
:101AE0008081434502D14FF001080FE0DFF8748197
:101AF000434502D14FF0020808E0DFF86C8143450E
:101B000002D14FF0030801E04FF004084FEA827958
:101B10004FEA197908FA09F848EA0505DFF84C8117
:101B20004FEA920948F82950D1F8048008F4801847
:101B3000B8F5801F0AD1DFF83881D8F8008048EA6C
:101B40000008DFF82C91C9F8008009E0DFF8208157
:101B5000D8F8008028EA0008DFF81491C9F800805E
:101B6000D1F8048008F40018B8F5001F10D1DFF890
:101B7000008108F10408D8F8008048EA0008DFF87E
:101B8000F09000E05AE009F10409C9F800800DE086
:101B9000DFF8DC8008F10408D8F8008028EA0008A3
:101BA000DFF8CC9009F10409C9F80080D1F804806D
:101BB00008F40038B8F5003F0ED1DFF8B480A8F182
:101BC0000408D8F8008048EA0008DFF8A490A9F1DA
:101BD0000409C9F800800DE0DFF89480A8F104083A
:101BE000D8F8008028EA0008DFF88490A9F10409F9
:101BF000C9F80080D1F8048008F48038B8F5803F37
:101C00000ED1DFF86C80A8F10808D8F8008048EA07
:101C10000008DFF85C90A9F10809C9F800800DE020
:101C2000DFF84C80A8F10808D8F8008028EA0008FE
:101C3000DFF83C90A9F10809C9F80080521CD1F8DE
:101C4000008028FA02F8B8F1000F7FF489AEBDE8F1
:101C5000F887000000001110001002400008014049
:101C6000000C014000100140001401400800014038
:101C7000080401400AB1016101E00B0403617047EF
:101C800001480068704700000400002070B5044659
:101C90000CB9012070BD94F83D0028B9002084F8EB
:101CA0003C00204600F03EFB242084F83D002068E4
:101CB000006820F00100216808602068006840F496
:101CC0000040216808602068006820F40040216816
:101CD000086000F0E5FD05465C496068884206D86A
:101CE0005B48854201D2012007E0002005E0594809
:101CF000854201D2012000E00020012800D1C9E77F
:101D00005548B5FBF0F62068406820F03F003043AE
:101D1000216848604D496068884201D8701C07E01E
:101D20004FF4967070434FF47A71B0FBF1F0401CA1
:101D30002168096A21F03F0108432168086243498C
:101D40006068884214D8681E61684900B0FBF1F0F1
:101D5000401CC0F30B00042801D204203DE0681EA3
:101D600061684900B0FBF1F0401CC0F30B0034E0A7
:101D7000A06838B9681E616801EB4101B0FBF1F061
:101D8000401C0AE0681E616801EBC10202EB011110
:101D9000B0FBF1F0401C40F48040C0F30B0008B9E8
:101DA00001201AE0A06848B9681E616801EB410192
:101DB000B0FBF1F0401CC0F30B000CE0681E616842
:101DC00001EBC10202EB0111B0FBF1F0401CC0F3CA
:101DD0000B0040F4804040F400402168C9694CF693
:101DE000FF72914308432168C861D4E907010843A1
:101DF0002168096821F0C001084321680860D4E91E
:101E0000031008432168896848F2FF329143084370
:101E100021688860D4E9050108432168C96821F078
:101E2000FF0108432168C8602068006840F0010095
:101E30002168086000202064202084F83D000020F4
:101E4000206384F83E0000BF24E70000A086010064
:101E500080841E0000093D0040420F002DE9FE4F26
:101E600004460F4690469946DDE90CAB0E9E0020D5
:101E70000290FFF705FF054694F83D00202872D137
:101E800019230122CA492046009502F00EFA10B12A
:101E90000220BDE8FE8F00BF94F83C00012801D16C
:101EA0000220F6E7012084F83C0000BF20680068AB
:101EB00000F0010028B92068006840F001002168A6
:101EC00008602068006820F4006021680860222013
:101ED00084F83D00402084F83E0000202064C4F8CF
:101EE00024A0A4F82AB0608D2085B248E0624B4659
:101EF000424639462046CDE9006502F083F808B134
:101F00000120C6E7208D88B900BF0020019020681D
:101F10004069019020688069019000BF00BF20687F
:101F2000006840F40070216808604BE0208D0128B3
:101F30001AD12068006820F480602168086072B6B9
:101F400000BF0020019020684069019020688069EE
:101F5000019000BF00BF2068006840F40070216855
:101F6000086062B62EE020E1208D022819D1206899
:101F7000006840F400602168086072B600BF00206D
:101F8000019020684069019020688069019000BF3D
:101F900000BF2068006820F480602168086062B695
:101FA00010E02068006840F480602168086000BF8D
:101FB00000200190206840690190206880690190AC
:101FC00000BF00BFE2E0208D03287DD8208D0128CE
:101FD00015D12A463146204602F043FA08B10120C5
:101FE00057E720680069616A0870606A401C606297
:101FF000208D401E2085608D401E6085C6E0208DAE
:1020000002282CD1334600226B492046009502F06D
:102010004CF908B101203CE772B62068006840F432
:1020200000702168086020680069616A0870606A51
:10203000401C6062208D401E2085608D401E6085A2
:1020400062B620680069616A0870606A401C60625C
:10205000208D401E2085608D401E608596E03346B1
:10206000002255492046009502F01FF908B10120D1
:102070000FE72068006820F480602168086072B66D
:1020800020680069616A0870606A401C6062208D87
:10209000401E2085608D401E6085484800681921DB
:1020A000B0FBF1F04FF47A71B0FBF1F0C0EBC0007F
:1020B00000EB8000029000BF0298401E0290029840
:1020C000A8B90020206300E039E0202084F83D001A
:1020D000002084F83E00206C40F02000206462B6AE
:1020E00000BF002084F83C0000BF0120D1E620683A
:1020F0004069C0F380000028DED02068006840F40A
:1021000000702168086020680069616A0870606A70
:10211000401C6062208D401E2085608D401E6085C1
:1021200062B620680069616A0870606A401C60627B
:10213000208D401E2085608D401E608526E02A4649
:102140003146204602F08DF908B10120A1E6206851
:102150000069616A0870606A401C6062208D401EE0
:102160002085608D401E608520684069C0F3800036
:1021700060B120680069616A0870606A401C606232
:10218000208D401E2085608D401E6085208D00289A
:102190007FF419AF202084F83D00002084F83E0031
:1021A00000BF84F83C0000BF73E6022071E6000027
:1021B000020010000000FFFF0400010010000020DA
:1021C0002DE9FC5F04460F4690469946DDE90CABCD
:1021D0000E9EFFF755FD054694F83D0020287DD161
:1021E000192301224D492046009502F05EF810B1F6
:1021F0000220BDE8FC9F00BF94F83C00012801D1FB
:102200000220F6E7012084F83C0000BF2068006847
:1022100000F0010028B92068006840F00100216842
:1022200008602068006820F40060216808602120B0
:1022300084F83D00402084F83E0000202064C4F86B
:1022400024A0A4F82AB0608D20853548E0624B4672
:10225000424639462046CDE9006501F083FF08B1CA
:102260000120C6E731E02A463146204602F03EF919
:1022700050B1206C042805D12068006840F400703B
:10228000216808600120B4E7606A0078216808616D
:10229000606A401C6062208D401E2085608D401E5B
:1022A000608520684069C0F3800070B1208D60B106
:1022B000606A007821680861606A401C6062208D55
:1022C000401E2085608D401E6085208D0028CAD16B
:1022D0002A463146204601F0B5FF00E01CE050B12F
:1022E000206C042805D12068006840F40070216843
:1022F000086001207DE72068006840F400702168D4
:102300000860202084F83D00002084F83E0000BFD3
:1023100084F83C0000BF6CE702206AE7020010006E
:102320000000FFFF10B586B0044600200290039025
:102330000490059016492068884226D100BF1548B0
:10234000806940F00800134988610846806900F000
:102350000800019000BF00BF4FF4406002901220BF
:1023600003900320059002A90B48FFF7F3FA00BF82
:102370000848C06940F480000649C8610846C06941
:1023800000F48000019000BF00BF06B010BD000047
:102390000058004000100240000C01400348006853
:1023A0000349097808440149086070470400002087
:1023B0000C00002010B50848006840F010000649E5
:1023C0000860032000F0D2F8002000F007F800F0C9
:1023D00055F8002010BD000000200240F0B587B085
:1023E000044600260027002500BF1F48806940F4EE
:1023F00000601D4988610846806900F40060009013
:1024000000BF00BF01A902A800F022FA00F058FAAC
:1024100006461648B6FBF0F0471E154815490860F9
:1024200040F2E7311348C1604760002101618160DB
:10243000816100F07BFE054695B90E4800F0C2FEB2
:1024400005466DB9192000F043F8102C07D2002280
:102450002146192000F04CF80748046000E00125EF
:10246000284607B0F0BD00000010024040420F00B7
:10247000002C0140840300200800002008B500BFA4
:102480001148806940F001000F4988610846806961
:1024900000F00100009000BF00BF00BF0846C06907
:1024A00040F08050C8610846C06900F0805000903C
:1024B00000BF00BF00BF0549486820F0E06040F061
:1024C0000070486000BF08BD0010024000000140DD
:1024D00001460846002809DB00F01F0301229A404C
:1024E00043099B0003F1E023C3F8002100BF7047BC
:1024F0002DE9F05F80460D461646002703F08EF961
:10250000074639462A46334601F00700C0F1070A5C
:10251000BAF1040F02D94FF0040A01E0C0F1070A32
:10252000D14600F1040ABAF1070F02D24FF0000AB7
:1025300001E0A0F1030AD4464FF0010A0AFA09FAB1
:10254000AAF1010A0AEA020A0AFA0CFA4FF0010B90
:102550000BFA0CFBABF1010B0BEA030B4AEA0B0481
:102560002146404603F062F9BDE8F09F00BF00F04D
:102570000702064B19684FF6FF031940044B0B4343
:1025800043EA0221014B196000BF70470CED00E0E7
:102590000000FA05F8B5044600260025207800F072
:1025A000010000286BD000274348C06900F080502C
:1025B00070B900BF4048C06940F080503E49C861D2
:1025C0000846C06900F08050009000BF00BF01279E
:1025D0003A48006800F48070B0B93848006840F4A8
:1025E000807036490860FFF74BFB064606E0FFF7B0
:1025F00047FB801B642801D90320F8BD2F480068E1
:1026000000F480700028F2D02B48006A00F4407576
:102610002DB3A08800F44070A84220D02648006A5C
:1026200020F44075012026490860002008602248F7
:10263000056205F0010090B1FFF722FB064608E0B5
:10264000FFF71EFB801B41F28831884201D903202D
:10265000D3E71948006A00F002000028F0D01648BD
:10266000006A20F440706168084313490862012F32
:1026700004D10846C06920F08050C86100BF2078AE
:1026800000F00200022807D10B48406820F44040C7
:10269000A168084308494860207800F0100010281D
:1026A00007D10548406820F48000E16808430249EA
:1026B00048600020A1E700000010024000700040C8
:1026C0004004424270B504460D460CB9012070BD6D
:1026D0005A48006800F00700A8420ED25748006828
:1026E00020F007002843554908600846006800F0BC
:1026F0000700A84201D00120E9E7207800F002009D
:1027000002281DD1207800F00400042805D14C488F
:10271000406840F4E0604A494860207800F00800D2
:10272000082805D14648406840F460504449486054
:102730004348406820F0F000A168084340494860E1
:10274000207800F0010078B36068012806D13C4889
:10275000006800F4003090B90120B8E760680228F2
:1027600006D13748006800F0007040B90120AEE79C
:102770003348006800F0020008B90120A7E730489C
:10278000406820F00300616808432D494860FFF766
:1027900077FA064609E0FFF773FA801B41F28831A9
:1027A000884202D9032092E707E02548406800F0FC
:1027B0000C006168B0EB810FEDD12048006800F09B
:1027C0000700A8420ED91D48006820F007002843E2
:1027D0001A4908600846006800F00700A84201D0C6
:1027E000012074E7207800F00400042807D1144881
:1027F000406820F4E060E1680843114948602078AF
:1028000000F00800082808D10D48406820F4605006
:10281000216940EAC1000A49486000F061F80849AE
:102820004968C1F30311074A515CC8400649086072
:1028300006480068FFF7D2FD002048E7002002406C
:1028400000100240EA740008100000200800002078
:102850000F2202600D4A526802F0030242600B4AE6
:10286000526802F0F0028260084A526802F4E062A4
:10287000C260064A526802F46052D2080261044AF9
:10288000126802F007020A60704700000010024060
:10289000002002400148006870470000100000203E
:1028A00000B5FFF7F7FF04494968C1F30221034A65
:1028B000515CC84000BD000000100240FA740008DE
:1028C00000B5FFF7E7FF04494968C1F3C221034A95
:1028D000515CC84000BD000000100240FA740008BE
:1028E00070B500210022002400230020134D6968E8
:1028F00001F00C05F5B1042D02D0082D19D101E02D
:102900000F4819E00F4DC1F38346AB5D01F48035EC
:1029100055B10A4D6D68C5F340450B4E725D084DCB
:102920005D43B5FBF2F402E0084D03FB05F42046DD
:1029300002E000BF024800BF00BF70BD00100240AF
:1029400000127A00D8740008E874000800093D00FD
:10295000F8B504460CB90120F8BD207800F001005C
:10296000002878D0F848406800F00C0004280CD00B
:10297000F548406800F00C00082811D1F248406882
:1029800000F48030B0F5803F0AD1EF48006800F4D1
:10299000003000285FD0606800285CD10120DBE7B0
:1029A00000BF6068B0F5803F06D1E748006840F49A
:1029B0008030E549086028E0606858B9E24800685E
:1029C00020F48030E04908600846006820F4802048
:1029D00008601AE06068B0F5A02F0BD1DA480068F3
:1029E00040F48020D84908600846006840F48030F0
:1029F00008600AE0D448006820F48030D2490860BA
:102A00000846006820F48020086000BF606888B134
:102A1000FFF736F9054606E0FFF732F9401B642858
:102A200001D9032098E7C848006800F40030002866
:102A3000F2D010E0FFF724F9054606E0FFF720F991
:102A4000401B642801D9032086E7BF48006800F4D2
:102A500000300028F2D1207800F00200022857D17F
:102A6000B948406800F00C0050B1B748406800F029
:102A70000C00082818D1B448406800F4803098B998
:102A8000B148006800F0020020B12069012801D09F
:102A9000012061E7AC48006820F0F800616940EA75
:102AA000C100A949086033E02069E8B10120A749C5
:102AB0000860FFF7E5F8054606E0FFF7E1F8401B80
:102AC000022801D9032047E79F48006800F0020070
:102AD0000028F2D09C48006820F0F800616940EAC4
:102AE000C1009949086013E0002098490860FFF789
:102AF000C7F8054606E0FFF7C3F8401B022801D9D6
:102B0000032029E79048006800F002000028F2D175
:102B1000207800F0080008282DD1A069B8B1012064
:102B20008B490860FFF7ACF8054606E0FFF7A8F808
:102B3000401B022801D903200EE78348406A00F0B9
:102B400002000028F2D0012002F066FA13E0002013
:102B50007F490860FFF794F8054606E0FFF790F814
:102B6000401B022801D90320F6E67748406A00F0AE
:102B700002000028F2D1207800F00400042873D16C
:102B800000277148C06900F0805070B900BF6E48DE
:102B9000C06940F080506C49C8610846C06900F0C7
:102BA0008050009000BF00BF01276A48006800F411
:102BB0008070B0B96748006840F48070654908606B
:102BC000FFF75EF8054606E0FFF75AF8401B642859
:102BD00001D90320C0E65F48006800F48070002837
:102BE000F2D000BFE068012806D15748006A40F0E3
:102BF00001005549086227E0E06858B95248006A68
:102C000020F00100504908620846006A20F00400E4
:102C1000086219E0E06805280BD14B48006A40F0D3
:102C20000400494908620846006A40F00100086251
:102C30000AE04548006A20F001004349086208465E
:102C4000006A20F00400086200BFE068A0B1FFF74E
:102C500017F8054609E0FFF713F8401B41F28831E9
:102C6000884202D9032077E622E03748006A00F064
:102C700002000028EFD012E0FFF702F8054608E056
:102C8000FEF7FEFF401B41F28831884201D9032044
:102C900062E62D48006A00F002000028F0D1012F02
:102CA00005D12948C06920F080502749C86100BF7C
:102CB000E069C8B32448406800F00C00082860D0E0
:102CC000E069022848D1002020490866FEF7D8FFB5
:102CD000054606E0FEF7D4FF401B022801D9032079
:102CE0003AE61948006800F000700028F2D1206A26
:102CF000B0F5803F07D11448406820F40030A16847
:102D0000084311494860D4E9080108430E4949685D
:102D100021F4741108430C49486001200B490866EE
:102D2000FEF7AEFF054607E03DE0FEF7A9FF401BBA
:102D3000022801D903200FE60348006800F0007064
:102D40000028F2D02FE000000010024000004242B4
:102D50008004424200700040002014490866FEF7DB
:102D60008FFF054606E0FEF78BFF401B022801D9C6
:102D70000320F1E50E48006800F000700028F2D151
:102D800011E0E069012800D1E6E50948466806F44B
:102D90008031206A814204D106F47011606A814258
:102DA00001D00120D8E50020D6E500000000424215
:102DB0000010024010B504460CB9012010BD606A35
:102DC00038B96068B0F5827F00D105E00021E1618B
:102DD00002E00021216161610021A16294F85100AB
:102DE00028B9002084F85000204600F043F8022063
:102DF00084F851002068006820F0400021680860D5
:102E0000A08800F48270218901F404410843A1895B
:102E100001F400610843217C01F002010843217D97
:102E200001F001010843218B01F400710843217F67
:102E300001F0380108432021095D01F080010843B9
:102E4000218D01F400510843216808600421A06924
:102E500001EA1040216848602068C06920F40060E1
:102E60002168C86100206065012084F851000020BD
:102E7000A4E7000010B586B004460020029003903D
:102E80000490059015492068884224D100BF144859
:102E9000806940F48050124988610846806900F4D6
:102EA0008050019000BF00BF00BF0846806940F01D
:102EB000040088610846806900F00400019000BFAA
:102EC00000BFA0200290022003900320059002A9D9
:102ED0000448FEF73FFD06B010BD00000030014081
:102EE00000100240000801402DE9F84F04468846D2
:102EF00016461D464FF0000A00BF94F85000012806
:102F000002D10220BDE8F88F012084F8500000BFF4
:102F1000FEF7B6FE0746B14694F85100012802D0EC
:102F20004FF0020AB7E0B8F1000F00D016B94FF029
:102F3000010AB0E0032084F8510000206065C4F865
:102F40003080A686E686A063A087E0876064206460
:102F5000A068B0F5004F0BD12068006820F0400059
:102F6000216808602068006840F48040216808609B
:102F70002068006800F04000402805D02068006804
:102F800040F0400021680860E068B0F5006F32D181
:102F9000606810B1B9F1010F09D1206B0088216878
:102FA000C860206B801C2063E08E401EE0861EE01F
:102FB0002068806800F0020002280AD1206B008897
:102FC0002168C860206B801C2063E08E401EE08674
:102FD0000DE0FEF755FEC01BA84201D3681C00B9E6
:102FE0002DB94FF0030A012084F8510053E0E08E20
:102FF0000028DDD131E0606810B1B9F1010F09D1CD
:10300000206B007821680873206B401C2063E08EE1
:10301000401EE0861EE02068806800F00200022862
:103020000AD1206B007821680873206B401C206354
:10303000E08E401EE0860DE0FEF722FEC01BA84297
:1030400001D3681C00B92DB94FF0030A012084F8A0
:10305000510020E0E08E0028DDD13A462946204686
:1030600001F0EEFF08B120206065A06850B900BFF4
:10307000002000902068C068009020688068009060
:1030800000BF00BF606D10B14FF0010A02E00120E7
:1030900084F8510000BF00BF002084F8500000BF3A
:1030A00050462FE77047704730B502460B4600BFC9
:1030B00092F83C00012801D1022030BD012082F8A5
:1030C0003C0000BF022082F83D0010684468106890
:1030D000816824F070041868044310684460104D3F
:1030E0001068A8420BD01068B0F1804F07D00D4D8A
:1030F0001068A84203D00C4D1068A84205D121F0F9
:1031000080015868014310688160012082F83D0009
:1031100000BF002082F83C0000BF00BFCDE70000E8
:10312000002C0140000400400008004010B5044697
:103130000CB9012010BD94F83D0028B9002084F896
:103140003C00204600F026F8022084F83D00211DB6
:10315000206802F049F8012084F8460000BF84F896
:103160003E0001213F2001554020015541200155DD
:1031700000BF00BF012084F84200432001554420D5
:1031800001554520015500BF012084F83D00002075
:10319000D0E7000008B5094A016891420DD100BF8F
:1031A0000749C96941F00401054AD1611146C9695D
:1031B00001F00401009100BF00BF08BD00080040FD
:1031C00000100240014691F83D00012801D0012085
:1031D0007047022081F83D000868C06840F0010097
:1031E0000B68D860124B086898420BD00868B0F1A1
:1031F000804F07D00F4B0868984203D00E4B0868E9
:1032000098420CD10868806800F00702062A0CD0AA
:103210000868006840F001000B68186005E0086865
:10322000006840F001000B6818600020D0E7000043
:10323000002C014000040040000800402DE9F0414E
:1032400004460D46002700BF94F83C00012802D137
:103250000220BDE8F081012084F83C0000BF02207C
:1032600084F83D002068866826F0770626F47F46BD
:10327000206886602868502833D00CDC202850D085
:1032800004DC00284BD0102851D149E0302849D027
:1032900040284CD139E060282DD0702807D0B0F5F7
:1032A000805F03D0B0F5005F41D10DE041E0D5E98A
:1032B00002136A68206801F0E2FF2068866846F021
:1032C00077062068866034E0D5E902136A682068D2
:1032D00001F0D5FF2068806840F480402168886054
:1032E00027E0EA686968206802F09AF850212068AF
:1032F00001F0D0FF1DE0EA686968206802F0A3F8D9
:103300006021206801F0C6FF13E0EA686968206860
:1033100002F086F84021206801F0BCFF09E000BF00
:1033200000BF00BF2968206801F0B4FF01E0012759
:1033300000BF00BF012084F83D0000BF002084F8DA
:103340003C0000BF384684E72DE9F04104460D46B5
:1033500014B90120BDE8F08194F83D0028B900209F
:1033600084F83C00204600F051F8022084F83D002B
:103370002068806844F20701884321688860211D25
:10338000206801F031FF2068D0F808802068866945
:103390002068076A286840EA080840F2033086433C
:1033A000A969A86840EA0120064340F60C4086431C
:1033B0004FF2F0008643E969E86840EA01200643DD
:1033C00028690001296A40EA0130064327F02207F4
:1033D0006969686840EA011007432068C0F80880FE
:1033E0002068866120680762012084F8460084F81E
:1033F0003E0001213F200155012084F84200432076
:103400000155012084F83D000020A3E710B586B0E7
:103410000446002002900390049005902068B0F1CB
:10342000804F45D100BF3D48C06940F001003B4995
:10343000C8610846C06900F00100019000BF00BFEC
:1034400000BF0846806940F0040088610846806932
:1034500000F00400019000BF00BF00BF0846806973
:1034600040F0080088610846806900F0080001907B
:1034700000BF00BF4FF40040029000200390049072
:1034800002A92748FEF766FA082002900020039060
:10349000049002A92348FEF75DFA00BF224948685C
:1034A00020F4407040F0E06040F48070486032E00A
:1034B0001E49206888422ED100BF1848C06940F0DC
:1034C00002001649C8610846C06900F00200019078
:1034D00000BF00BF00BF0846806940F00800886157
:1034E0000846806900F00800019000BF00BF30204E
:1034F000029000200390049002A90A48FEF72AFADD
:1035000000BF0949486820F4406040F0E06040F4A2
:103510000060486000BF06B010BD0000001002400F
:1035200000080140000C0140000001400004004080
:103530002DE9F04304460D4694F83E603F20075DB8
:1035400094F84280432010F804906DB9012E02D106
:10355000B8F1010F02D00120BDE8F083022084F809
:103560003E0084F8420025E0042D0CD1012F02D149
:10357000B9F1010F01D00120EEE702213F200155F2
:103580004320015516E0012E07D1012F05D1B8F1D6
:10359000010F02D1B9F1010F01D00120DCE70220B7
:1035A00084F83E0002213F200155022084F84200A9
:1035B0004320015515B1042D0CD105E00122002155
:1035C000206801F04BFE10E001220421206801F088
:1035D00045FE0AE001220021206801F03FFE0122A1
:1035E0000421206801F03AFE00BF00BF2068006897
:1035F00040F00100216808600020ADE7704710B579
:10360000044620680069C0F34000D8B12068C06853
:10361000C0F34000B0B16FF00200216808610120E2
:1036200020772068806900F0030018B12046FFF77A
:10363000E5FF05E0204600F0D9F8204600F08DF9BE
:103640000020207720680069C0F38000D8B120688E
:10365000C068C0F38000B0B16FF004002168086159
:10366000022020772068806900F4407018B120465D
:10367000FFF7C4FF05E0204600F0B8F8204600F050
:103680006CF90020207720680069C0F3C000D8B131
:103690002068C068C0F3C000B0B16FF008002168B6
:1036A0000861042020772068C06900F0030018B189
:1036B0002046FFF7A3FF05E0204600F097F82046DC
:1036C00000F04BF90020207720680069C0F300105B
:1036D000D8B12068C068C0F30010B0B16FF010001E
:1036E00021680861082020772068C06900F44070D4
:1036F00018B12046FFF782FF05E0204600F076F87B
:10370000204600F02AF9002020772068006900F0A8
:10371000010058B12068C06800F0010030B16FF0BE
:10372000010021680861204600F082F920680069E4
:10373000C0F3C01058B12068C068C0F3C01030B1E9
:103740006FF08000216808612046FFF7ABFC20681D
:103750000069C0F3801058B12068C068C0F38010C1
:1037600030B16FF0400021680861204600F06CF92C
:1037700020680069C0F3401058B12068C068C0F3E9
:10378000401030B16FF02000216808612046FFF73B
:103790008AFC10BD10B586B004460020029003904C
:1037A000049005900E492068884217D100BF0D484B
:1037B000806940F008000B4988610846806900F084
:1037C0000800019000BF00BF4FF44070029002203B
:1037D0000390059002A90448FEF7BCF806B010BD9E
:1037E0000008004000100240000C014070472DE925
:1037F000F04104460D461646002700BF94F83C00F1
:10380000012802D10220BDE8F081012084F83C00AB
:1038100000BF36B1042E1BD0082E31D00C2E5ED145
:1038200045E02946206801F03FFD2068806940F0AE
:103830000800216888612068806920F00400216800
:10384000886120688069296908432168886148E0A7
:103850002946206801F058FD2068806940F4006026
:10386000216888612068806920F48060216888610F
:1038700020688069296940EA01202168886130E078
:103880002946206801F074FD2068C06940F00800F6
:103890002168C8612068C06920F004002168C861FF
:1038A0002068C069296908432168C86119E0294670
:1038B000206801F091FD2068C06940F40060216833
:1038C000C8612068C06920F480602168C8612068F0
:1038D000C069296940EA01202168C86101E0012727
:1038E00000BF00BF00BF002084F83C0000BF384686
:1038F00089E710B504460CB9012010BD94F83D00CD
:1039000028B9002084F83C00204600F025F8022069
:1039100084F83D00211D206801F066FC012084F838
:10392000460000BF84F83E0001213F2001554020A1
:1039300001554120015500BF00BF012084F842001D
:1039400043200155442001554520015500BF012069
:1039500084F83D000020D0E77047704770B50446FA
:103960000D4615B994F83E000BE0042D02D13F201E
:10397000005D06E0082D02D14020005D01E04120FD
:10398000005D012801D0012070BD1DB9022084F81E
:103990003E000EE0042D03D102213F20015508E036
:1039A000082D03D102214020015502E002214120CF
:1039B000015501222946206801F050FC1949206870
:1039C000884201D1012000E0002028B12068406C2D
:1039D00040F40040216848641249206888420BD0B6
:1039E0002068B0F1804F07D00F492068884203D08B
:1039F0000E49206888420CD12068806800F00706D4
:103A0000062E0CD02068006840F001002168086094
:103A100005E02068006840F001002168086000208F
:103A2000B2E70000002C0140000400400008004004
:103A300010B5044603492068884201D1FEF7AEFC68
:103A400010BD0000002C0140704770477047000017
:103A50002DE9F84F0446206805682068C66820688C
:103A600047694FF00009CA4605F00F09B9F1000F88
:103A70000AD105F0200038B106F0200020B1204620
:103A800001F045FDBDE8F88FB9F1000F7BD007F0DC
:103A9000010018B906F49070002874D005F00100F8
:103AA00030B106F4807018B1606C40F001006064C1
:103AB00005F0040030B107F0010018B1606C40F06F
:103AC0000200606405F0020030B107F0010018B197
:103AD000606C40F00400606405F0080048B106F036
:103AE000200010B907F0010018B1606C40F0080028
:103AF0006064606C002845D005F0200028B106F015
:103B0000200010B1204601F002FD20684069C0F39A
:103B1000801A606C00F0080010B9BAF1000F2CD0C8
:103B2000204601F0AEFC2068406900F0400000B380
:103B300000BF00BF2168143151E8001F21F0400090
:103B40002168143141E80002002AF3D100BFE06B84
:103B500050B17748E16B4863E06BFDF78FFE88B1A9
:103B6000E06B416B88470DE02046FFF76FFF09E0EF
:103B700009E02046FFF76AFF04E02046FFF766FFF2
:103B8000002060647EE7206B012877D105F01000EB
:103B9000002873D006F010000028FAD000BF0020E3
:103BA000009020680068009020684068009000BF86
:103BB00000BF2068406900F0400000285FD0E06B43
:103BC000006840681FFA80F8B8F1000F55D0A08D4A
:103BD000404552DDA4F82E80E06B8069202843D058
:103BE00000BF00BF21680C3151E8001F21F4807034
:103BF00021680C3141E80002002AF3D100BF00BF68
:103C000000BF2168143151E8001F21F00100216834
:103C1000143141E80002002AF3D100BF00BF00BF09
:103C20002168143151E8001F21F04000216814314F
:103C300041E80002002AF3D100BF202084F84200AE
:103C40000020206300BF00BF21680C3151E8001F35
:103C500021F0100021680C3141E80002002AF3D164
:103C600000BFE06BFDF7DEFD02206063A08DE28DFA
:103C7000801A81B22046FFF7E8FE03E742E0A08DFC
:103C8000E18D401A1FFA80F8E08DD0B3B8F1000F33
:103C900037D000BF00BF21680C3151E8001F21F46C
:103CA000907021680C3141E80002002AF3D100BF76
:103CB00000BF00BF2168143151E8001F21F001004E
:103CC0002168143141E80002002AF3D100BF20200E
:103CD00084F842000020206300BF00BF21680C313F
:103CE00051E8001F21F0100021680C3141E800026A
:103CF000002AF3D100BF0220606341462046FFF74F
:103D0000A4FEBFE605F0800030B106F0800018B1D7
:103D1000204601F019FDB5E605F0400030B106F08F
:103D2000400018B1204601F0E2FBABE600BFA9E677
:103D30006F54000810B504460CB9012010BDA069ED
:103D400000B100E000BF94F8410028B9002084F8D9
:103D50004000204600F02AF8242084F84100206822
:103D6000C06820F400502168C860204601F04EFC75
:103D70002068006920F4904021680861206840694B
:103D800020F02A00216848612068C06840F4005093
:103D90002168C86000206064202084F8410084F815
:103DA00042000020606300BFC8E7000010B586B085
:103DB0000446002002900390049005903B4920683F
:103DC000884237D100BF3A48806940F48040384982
:103DD00088610846806900F48040019000BF00BF00
:103DE00000BF0846806940F0040088610846806989
:103DF00000F00400019000BF00BF481502900220AF
:103E000003900320059002A92A48FDF7A3FD4FF473
:103E10008060029000200390049002A92548FDF7DD
:103E200099FD002205212520FEF762FB2520FEF7E3
:103E30004FFB39E020492068884235D100BF1C483B
:103E4000C06940F400301A49C8610846C06900F4EE
:103E50000030019000BF00BF00BF0846806940F0FD
:103E6000040088610846806900F00400019000BFEA
:103E700000BF04200290022003900320059002A9B5
:103E80000C48FDF767FD0820029000200390049085
:103E900002A90848FDF75EFD002205212620FEF755
:103EA00027FB2620FEF714FB06B010BD00380140AA
:103EB00000100240000801400044004070B5044674
:103EC0000D46164694F8420020280BD105B10EB9D4
:103ED000012070BD0020206332462946204601F0B3
:103EE00013FCF6E70220F4E710B504462D492068DC
:103EF000884250D12C48007852282CD004DC442829
:103F000011D04C283CD11AE053282FD0552837D156
:103F100001202649087000202549087025490870AD
:103F20002549087036E0002020490870012020490A
:103F3000087000201F4908701F4908702AE00020FF
:103F40001A4908701A49087001201A49087000209F
:103F5000194908701EE000201449087014490870BF
:103F60001449087001201449087013E000200F491B
:103F700008700F4908700F4908700F49087009E070
:103F800000200A4908700A4908700A4908700A495D
:103F9000087000BF00BF012203490848FFF78EFFE9
:103FA00010BD00000044004000000020200100205F
:103FB0002101002022010020230100203C030020D9
:103FC000704700BFFEE7014608684069C0F38020E3
:103FD000B0B16FF480600A6850610020086320204F
:103FE00081F83D00002081F83E00086C40F004009C
:103FF000086400BF002081F83C0000BF012070472A
:104000000020FCE72DE9F84304460F461546994683
:10401000DDE908862068006840F480602168086057
:104020002068006840F480702168086043460022E0
:104030004FF001112046009600F037F960B120687A
:10404000006800F48070B0F5807F02D14FF40070FA
:1040500020640320BDE8F88307F0FE0021680861B2
:10406000334642463E49204600F07EF908B1012021
:10407000F0E700BF002000902068406900902068B1
:104080008069009000BF00BF32464146204600F0E4
:104090002DFA50B1206C042805D12068006840F446
:1040A0000070216808600120D4E7B9F1010F03D145
:1040B000E8B22168086117E0C5F3072021680861AC
:1040C00032464146204600F011FA50B1206C0428D7
:1040D00005D12068006840F4007021680860012064
:1040E000B8E7E8B22168086132464146204600F050
:1040F000FDF950B1206C042805D12068006840F417
:104100000070216808600120A4E72068006840F47E
:10411000807021680860434600224FF0011120465C
:10412000009600F0C2F858B12068006800F4807072
:10413000B0F5807F02D14FF400702064032089E73E
:10414000F8B240F001002168086133464246044954
:10415000204600F009F908B101207BE7002079E74B
:10416000020001002DE9F8430446884615469946A9
:10417000DDE908672068006840F480702168086005
:10418000334600224FF001112046009700F08DF8D1
:1041900060B12068006800F48070B0F5807F02D1C3
:1041A0004FF4007020640320BDE8F88308F0FE009F
:1041B000216808613B4632462149204600F0D4F888
:1041C00008B10120F0E700BF00200090206840699E
:1041D000009020688069009000BF00BF3A463146D9
:1041E000204600F083F950B1206C042805D12068E6
:1041F000006840F40070216808600120D4E7B9F13C
:10420000010F03D1E8B22168086117E0C5F3072068
:10421000216808613A463146204600F067F950B1FE
:10422000206C042805D12068006840F400702168E3
:1042300008600120B8E7E8B2216808610020B3E710
:104240000200010070B504460D46164625E02046E2
:10425000FFF7B9FE08B1012070BD681CE8B1FDF799
:104260000FFD801BA84200D8BDB920684069C0F38B
:10427000800090B900202063202084F83D000020B9
:1042800084F83E00206C40F02000206400BF002035
:1042900084F83C0000BF0120DEE720684069C0F3DD
:1042A00080000028D3D00020D6E72DE9F041044655
:1042B0000D4617461E46DDF8188038E0701CA8B37E
:1042C000FDF7DEFCA0EB0800B04200D876BBC5F3DA
:1042D000074001280AD120684069A9B20840A9B264
:1042E000884201D101200BE0002009E020688069AC
:1042F000A9B20840A9B2884201D1012000E0002003
:10430000B84214D100202063202084F83D00002012
:1043100084F83E00206C40F02000206400BF0020A4
:1043200084F83C0000BF0120BDE8F081FFE7C5F341
:10433000074001280AD120684069A9B20840A9B203
:10434000884201D101200BE0002009E0206880694B
:10435000A9B20840A9B2884201D1012000E00020A2
:10436000B842ABD00020DFE72DE9F04104460D460E
:1043700016461F4658E020684069C0F38020E8B127
:104380002068006840F40070216808606FF4806065
:104390002168486100202063202084F83D0000202F
:1043A00084F83E00206C40F00400206400BF002030
:1043B00084F83C0000BF0120BDE8F081701C90B380
:1043C000FDF75EFCC01BB04200D866BBC5F30740DA
:1043D00001280AD120684069A9B20840A9B28842E0
:1043E00001D101200BE0002009E020688069A9B21A
:1043F0000840A9B2884201D1012000E0002090B914
:1044000000202063202084F83D00002084F83E0036
:10441000206C40F02000206400BF002084F83C00A5
:1044200000BF0120C8E7FFE7C5F3074001280AD114
:1044300020684069A9B20840A9B2884201D1012090
:104440000BE0002009E020688069A9B20840A9B209
:10445000884201D1012000E0002000288BD00020FC
:10446000AAE770B504460D46164637E02068406955
:10447000C0F30010A0B16FF0100021684861002067
:104480002063202084F83D00002084F83E00206C4A
:10449000206400BF002084F83C0000BF012070BDF4
:1044A000FDF7EEFB801BA84200D8BDB9206840692B
:1044B000C0F3801090B900202063202084F83D00D4
:1044C000002084F83E00206C40F02000206400BFF3
:1044D000002084F83C0000BF0120E0E7206840692C
:1044E000C0F380100028C1D00020D8E770B5044682
:1044F0000D46164625E02046FFF765FD08B1012070
:1045000070BD681CE8B1FDF7BBFB801BA84200D85A
:10451000BDB920684069C0F3C01090B90020206385
:10452000202084F83D00002084F83E00206C40F0FC
:104530002000206400BF002084F83C0000BF012060
:10454000DEE720684069C0F3C0100028D3D0002007
:10455000D6E7000001460020022902D0032912D12B
:1045600008E00A4A1268526A10B20022074B1B6820
:104570005A6209E0064A1268526A10B20022044BDD
:104580001B685A6200E000BF00BF70471C02002099
:10459000640200207CB506460C4615460622694694
:1045A0003B2000F085F89DF801009DF8001040EADE
:1045B000012000B230809DF803009DF8021040EA0F
:1045C000012000B220809DF805009DF8041040EA0B
:1045D000012000B228807CBD7CB506460C461546FD
:1045E00006226946432000F063F89DF801009DF81B
:1045F000001040EA012000B230809DF803009DF8D1
:10460000021040EA012000B220809DF805009DF8CC
:10461000041040EA012000B228807CBD08B50020CB
:10462000009080216B2000F091F84FF49670FDF718
:104630007DF900216B2000F089F818211B2000F083
:1046400085F800211C2000F081F80021382000F0BE
:104650007DF800216A2000F079F80021232000F085
:1046600075F86946752000F011F89DF8000068287B
:104670000AD101216B2000F069F8642000F02AF8CB
:1046800000216C2000F062F808BD00003EB5044631
:104690000D464FF4FA6001210B462246CDE9005148
:1046A0000290D0210148FDF7D9FB3EBD70010020EA
:1046B000FEB504460D4616464FF4FA600123224625
:1046C000D021CDE9005602900148FDF7C7FBFEBDA1
:1046D0007001002070B504460025042C01DA042482
:1046E00004E0B4F57A7F01DD4FF47A744FF47A7008
:1046F00090FBF4F0401EC5B22946192000F026F8C0
:10470000204600F001F870BD70B504460025204633
:1047100004EBD071C1F34F04BC2C01DD012510E086
:10472000622C01DD02250CE02A2C01DD032508E0C6
:10473000142C01DD042504E00A2C01DD052500E030
:10474000062529461A2000F001F870BD13B584B083
:1047500004464FF4FA60012105AA0B46CDE9002179
:1047600002902246D0210248FDF72AFD06B010BD76
:104770007001002010B504465CB900224FF480415E
:104780001048FDF777FA0122D1030E48FDF772FABF
:1047900016E0012C0AD1012291030A48FDF76AFABA
:1047A0000022E1030748FDF765FA09E001229103C1
:1047B0000448FDF75FFA0122D1030248FDF75AFAD7
:1047C00010BD0000000C014010B504465CB9002289
:1047D0004FF400511048FDF74DFA012211030E4825
:1047E000FDF748FA16E0012C0AD1012251030A48CC
:1047F000FDF740FA002221030748FDF73BFA09E0E4
:10480000012251030448FDF735FA01221103024841
:10481000FDF730FA10BD0000000C014070B50546F0
:104820000C46002D03DD0020FFF7A4FF09E0002D5A
:1048300004DA0120FFF79EFF6D4202E00220FFF73D
:1048400099FF0B4800680564002C03DD0020FFF78A
:10485000BBFF09E0002C04DA0120FFF7B5FF64423A
:1048600002E00220FFF7B0FF01480068C46370BD9A
:10487000AC0200200EB5002000900190029011487B
:1048800011490860002110488160017301754FF4DF
:104890006021C16100200C49486001210A48016182
:1048A000FCF74EFE08B1FCF794FD0120009001904A
:1048B0000720029069460448FCF78EFD08B1FCF71A
:1048C00088FD0EBD002401404001002000B585B0E8
:1048D0000020019002900390049000BF2C48806952
:1048E00040F010002A4988610846806900F01000F5
:1048F000009000BF00BF00BF0846806940F0200064
:1049000088610846806900F02000009000BF00BF69
:1049100000BF0846806940F004008861084680694D
:1049200000F00400009000BF00BF00BF084680698F
:1049300040F0080088610846806900F00800009097
:1049400000BF00BF012210211248FDF793F9012298
:104950004FF203011048FDF78DF91020019001205E
:104960000290002003900320049001A90948FCF75D
:10497000F1FF4FF20300019001200290002003900C
:104980000320049001A90448FCF7E4FF05B000BD32
:104990000010024000080140000C014010B50B4817
:1049A0000B4908600B484860002109488160C160DC
:1049B0004FF480410161002141618161C161016267
:1049C000FDF764F908B1FCF704FD10BD0058004084
:1049D00070010020801A060010B50E480E490860CC
:1049E0004FF48270486000210B488160C160016112
:1049F00041614FF4007181610821C16100210162B0
:104A0000416281620A21C162FEF7D4F908B1FCF764
:104A1000E0FC10BD00300140C401002000B58BB0A7
:104A2000242102A8FBF7E3FB0020009001904FF047
:104A300080401749086000204860002114488160C8
:104A40004FF6FF71C1600021016181610320029076
:104A5000002003900120049000200590069007900C
:104A600001200890002009900A9002A90848FEF74A
:104A70006BFC08B1FCF7ADFC00200090019069468A
:104A80000348FEF711FB08B1FCF7A3FC0BB000BD17
:104A90001C02002000B58BB0242102A8FBF7A7FB65
:104AA00000200090019018481849086000204860D4
:104AB0000021164881604FF6FF71C160002101613D
:104AC00081610320029000200390012004900020C7
:104AD00005900690079001200890002009900A9008
:104AE00002A90A48FEF730FC08B1FCF772FC00206E
:104AF0000090019069460548FEF7D6FA08B1FCF728
:104B000068FC0BB000BD00000004004064020020FF
:104B100000B58DB0002009900A900B900C90079082
:104B200008901C216846FBF762FB24482449086072
:104B30000020486000212248816041F61F41C16089
:104B4000002101618161FEF7F1FA08B1FCF741FC37
:104B50004FF48050099009A91948FEF76FFB08B17E
:104B6000FCF737FC1648FEF7C4FE08B1FCF731FC31
:104B700000200790089007A91148FEF795FA08B1A0
:104B8000FCF727FC60200090002001900290049028
:104B9000082269460A48FEF72AFE08B1FCF719FC0C
:104BA0000C2269460648FEF722FE08B1FCF711FC0C
:104BB0000348FEF7EFFD0DB000BD00000008004007
:104BC000AC02002010B50B480B4908604FF4E130EF
:104BD0004860002108488160C16001610C21416189
:104BE00000218161C161FFF7A5F808B1FCF7F1FB75
:104BF00010BD000000380140F402002010B50B4841
:104C00000B4908604FF41650486000210848816045
:104C1000C16001610C21416100218161C161FFF727
:104C200089F808B1FCF7D5FB10BD00000044004036
:104C30003C03002000BFFEE700BFFEE770B5002484
:104C40000CE0002506E00020074901EBC5010855EE
:104C5000681CC5B2802DF6DB601CC4B2082CF0DBEA
:104C600000F0C4F870BD0000CC030020F0B514467D
:104C70000B46CF1701EB5777C7F3C702CF1701EBEE
:104C80005777FF10A1EBC707FEB20123B340DDB297
:104C90004CB1134B03EBC0039B5C2B43104F07EB52
:104CA000C007BB541AE00E4B03EBC0039B5CDB4315
:104CB0000B4F07EBC007BB54094B03EBC0039B5CD6
:104CC0002B43074F07EBC007BB54054B03EBC00357
:104CD0009B5CDB43024F07EBC007BB54F0BD0000F9
:104CE000CC03002010B5002201213F48FCF7C2FF91
:104CF000C820FCF71BFE012211463B48FCF7BAFF17
:104D00000021AE2000F05CF90021084600F058F9BF
:104D10000021102000F054F90021402000F050F94B
:104D20000021812000F04CF90021CF2000F048F94B
:104D30000021A12000F044F90021C82000F040F932
:104D40000021A62000F03CF90021A82000F038F94D
:104D500000213F2000F034F90021D32000F030F989
:104D60000021084600F02CF90021D52000F028F998
:104D70000021802000F024F90021D92000F020F942
:104D80000021F12000F01CF90021DA2000F018F9D0
:104D90000021122000F014F90021DB2000F010F9AE
:104DA0000021402000F00CF90021202000F008F93B
:104DB0000021022000F004F900218D2000F000F90C
:104DC0000021142000F0FCF80021A42000F0F8F8E5
:104DD0000021A62000F0F4F8FFF730FF0021AF20FB
:104DE00000F0EEF810BD0000000C014070B500248A
:104DF0001CE004F1B001C8B2002100F0E1F800218C
:104E0000084600F0DDF80021102000F0D9F8002558
:104E100008E0084901EBC501085D012100F0D0F868
:104E2000681CC5B2802DF4DB601CC4B2082CE0DB2A
:104E300070BD0000CC0300202DE9FE4F07468846D8
:104E400092461C460197CDF80080082C02D14FF005
:104E500006091FE02046E31704EB5373DB102146DD
:104E60004FEAE47C04EB5C7C4FEAEC0CA4EBCC0C4A
:104E7000BCF1000F02D04FF0010C01E04FF0000C2C
:104E80006344224604EBD27C4FEA6C0C03FB0CF328
:104E900003F0FF09AAF12000C6B200255EE0082C4D
:104EA00007D106EB46002F4901EB400010F805B092
:104EB0001DE00C2C07D106EB46002B4901EB8000CE
:104EC00010F805B013E0102C05D1284800EB0610AF
:104ED00010F805B00BE0182C07D106EBC6002449EA
:104EE00001EB800010F805B001E0BDE8FE8F002066
:104EF00002901CE00BF0010028B1414638460C9AA4
:104F0000FFF7B4FE09E00C9808B9012000E000208A
:104F1000024641463846FFF7A9FE4FEA6B0B08F1FF
:104F2000010000F0FF080298401CC0B202900298F5
:104F30000828DFDB781CC7B2082C0BD004EBD47137
:104F40004A100199791A8A4204D1019F00980830C9
:104F5000C0B20090DDF80080681CC5B24D459EDBF4
:104F600000BFC2E7027500082A7700089E7B000890
:104F70008E8100082DE9F84106460F4614461D466D
:104F8000DDF81C8013E0CDF8008022782B463946EE
:104F90003046FFF751FF082D02D1B01DC6B205E023
:104FA000284605EBD07106EB6101CEB2641C207877
:104FB000202802DB20787E28E5DDBDE8F8810000AE
:104FC00013B50C462CB1012202211048FCF752FE09
:104FD00004E0002202210D48FCF74CFE00221021C3
:104FE0000B48FCF747FE4FF4FA6301226946094873
:104FF000FDF77AFF012210210548FCF73BFE012254
:1050000002210248FCF736FE1CBD0000000C0140E6
:1050100000080140C401002008B508490968C90812
:105020004FF47A72B1FBF2F14143009100BF00BF2F
:1050300000994A1E00920029F9D108BD10000020F5
:10504000F8B504460D4616462B4600228021204620
:10505000009600F009F828B1606D40F0200060650E
:105060000320F8BD0020FCE72DE9F84F04460D466B
:1050700090461E46DDF82890FCF702FEA0EB0900E2
:10508000371AFCF7FDFD82462C480068C0F3CB3090
:105090007843009045E0701C002842D0FCF7F0FDFA
:1050A000A0EB0A00B84200D2A7BB2068406820F0FD
:1050B000E000216848606068B0F5827F0DD1A0688B
:1050C000B0F5004F03D0A068B0F5806F05D120681F
:1050D000006820F0400021680860A06AB0F5005F19
:1050E0000DD100BF2068006820F4005021680860DE
:1050F0002068006840F400502168086000BF01206B
:1051000084F8510000BF002084F8500000BF032045
:10511000BDE8F88FFFE7009800B900270098401E0F
:105120000090206880682840A84201D1012000E05A
:1051300000204045AFD10020EAE700001000002029
:1051400010B502F03DF8012801D001F00BFF10BDB1
:1051500000B593B0282109A8FBF749F8142104A849
:10516000FBF745F800200090019002900390012089
:10517000099000040A9000200B9001200D9002205D
:105180001090C10311914FF4E011129109A8FDF79D
:10519000DFFB08B1FCF71DF90F20049002200590F9
:1051A000002006904FF480600790002008900221B4
:1051B00004A8FDF787FA08B1FCF70BF9022000906C
:1051C000800302906846FDF7E5F908B1FCF701F9A4
:1051D00013B000BD7047000010B50248FEF70FFA8B
:1051E00010BD00008403002010B50268184B9842DF
:1051F00008D0B0F1804F05D0164B984202D0164B24
:10520000984203D122F070024B681A43104B984227
:1052100008D0B0F1804F05D00E4B984202D00E4B13
:10522000984203D122F44072CB681A4322F08003E3
:105230004C6943EA040202608B68C3620B688362B4
:10524000034B984201D10B6903630123436110BDF5
:10525000002C0140000400400008004030B501F07F
:105260001F05012404FA05F3046A9C430462046ADE
:1052700001F01F0502FA05F52C43046230BD30B57C
:105280000C46816821F47F4142EA032525432943E6
:10529000816030BD0A46816821F0700142F0070349
:1052A000194381607047000030B5026A056A25F035
:1052B000010505624368846924F0700424F0030446
:1052C0000D682C4322F002028D682A430D4DA8423E
:1052D00006D100BF22F00802CD682A4322F0040262
:1052E000084DA84207D123F4807323F400734D695D
:1052F0002B438D692B43436084614D684563026293
:1053000030BD0000002C014030B5026A056A25F06E
:10531000100505624368846924F4E04424F4407471
:105320000D6844EA052422F020028D6842EA051245
:105330000E4DA84207D100BF22F08002CD6842EA9C
:10534000051222F04002094DA84209D123F48063DE
:1053500023F400634D6943EA85038D6943EA8503BD
:10536000436084614D688563026230BD002C01405A
:1053700030B5026A056A25F4807505624368C46920
:1053800024F0700424F003040D682C4322F400720E
:105390008D6842EA05220F4DA84207D100BF22F4D2
:1053A0000062CD6842EA052222F48062094DA842DB
:1053B00009D123F4805323F400534D6943EA0513C4
:1053C0008D6943EA05134360C4614D68C563026299
:1053D00030BD0000002C014030B5036A056A25F499
:1053E000805505624468C26922F4E04222F44072AA
:1053F0000D6842EA052223F400538D6843EA053321
:10540000064DA84204D124F480444D6944EA851431
:105410004460C2614D680564036230BD002C0140E8
:1054200030B50B461446026A056A25F0010505628F
:10543000816921F0F00141EA041122F00A021A43C5
:105440008161026230BD30B50B461446026A056ABE
:1054500025F010050562816921F4704141EA0431AB
:1054600022F0A00242EA03128161026230BD70B5EF
:1054700005466C6A0020E085E0842046FEF7E6FAE7
:1054800070BD00BF00BF02680C3252E8002F22F44A
:10549000907102680C3242E80013002BF3D100BF78
:1054A00000BF00BF0268143252E8002F22F0010151
:1054B0000268143242E80013002BF3D100BF016BE5
:1054C00001290ED100BF00BF02680C3252E8002F44
:1054D00022F0100102680C3242E80013002BF3D1D5
:1054E00000BF202180F8421000210163704710B5F1
:1054F00004462068C06820F040002168C860202071
:1055000084F841002046FEF75BFD002010BDF8B591
:10551000044694F84200222875D1A068B0F5805F57
:105520000CD1206950B90025A66A20684068C0F3F4
:1055300008003080A06A801CA06215E0A56A0026E1
:10554000A068B0F5805F03D0A06828B9206918B9B9
:1055500020684068287004E02068406800F07F0000
:105560002870A06A401CA062E08D401E80B2E085D9
:10557000002846D12068C06820F020002168C8605B
:105580002068C06820F480702168C8602068406985
:1055900020F0010021684861202084F842000020AA
:1055A0006063206B012826D10020206300BF00BF6C
:1055B00021680C3151E8001F21F0100021680C31E6
:1055C00041E80002002AF3D100BF2068006800F023
:1055D000100010280AD100BF002000902068006849
:1055E000009020684068009000BF00BFA18D204659
:1055F000FEF72BFA02E02046FEF776FC0020F8BD0D
:1056000001E00020FBE70220F9E7000070B5044646
:105610002168096921F44051E2681143226811614F
:105620002269A1681143626941EA02052168C968DB
:1056300041F20C62914329432268D1602168496993
:1056400021F44071A2691143226851612D4A2168F9
:10565000914202D1FDF734F901E0FDF721F900EBA9
:10566000C00101EB001162689200B1FBF2F100EBA6
:10567000C00202EB001263689B00B2FBF3F26423EA
:10568000B2FBF3F202EBC20303EB0212A1EB8201C5
:10569000322202EB01116422B1FBF2F101F0F001C0
:1056A00000EBC00202EB001263689B00B2FBF3F256
:1056B0006423B2FBF3F201EB021200EBC00101EB39
:1056C000001163689B00B1FBF3F100EBC00303EB37
:1056D00000136668B600B3FBF6F36426B3FBF6F37B
:1056E00003EBC30606EB0313A1EB8301322303EBA9
:1056F00001116423B1FBF3F101F00F0111442268A1
:10570000916070BD0038014010B5034699629A85DA
:10571000DA8500205864222083F84200186928B1F5
:105720001868C06840F480701C68E06018684069C0
:1057300040F001001C6860611868C06840F02000FB
:105740001C68E060002010BD014691F8410021284E
:1057500028D18868B0F5805F0BD1086948B90A6A1A
:105760001088C0F308000B685860086A801C086243
:1057700005E00B6A581C086218780B685860C88CE2
:10578000401E80B2C88458B90868C06820F0800004
:105790000B68D8600868C06840F040000B68D860AB
:1057A000002070470220FCE710B50248FEF750F9D0
:1057B00010BD0000F402002010B50248FEF748F9C1
:1057C00010BD00003C03002000BFFEE70FB4084BF3
:1057D00010B504A902AA039800F076F9044602A9BC
:1057E000002000F0F4FC204610BC5DF814FB000023
:1057F000CF610008490050EAC12018BF04204A0DBB
:1058000018BF40F0010040F2FF72B2EB515F08BFD9
:1058100040F00200012808BF0520704702480068D8
:10582000C0F30220704700000CED00E010B5002826
:1058300004DB0A07130E054A135406E00A07140E88
:10584000034A00F00F031B1FD45410BD00E400E016
:1058500018ED00E02DE9F0414F1E00EBC7010446B2
:10586000D1E9000115461E4637F006020DD02A4642
:105870003346FAF736FE7F1E04EBC703D3E9002355
:10588000FAF788FD37F00602F1D1022F25D0042F58
:1058900013D0062F18BFBDE8F0812A463346FAF729
:1058A00020FED4E90A23FAF775FD2A463346FAF7B3
:1058B00018FED4E90823FAF76DFD2A463346FAF7B5
:1058C00010FED4E90623FAF765FD2A463346FAF7B7
:1058D00008FED4E90423FAF75DFD2A463346FAF7B9
:1058E00000FED4E90223FAF755FD2A463346FAF7BB
:1058F000F8FDD4E90023BDE8F041FAF74BBD0122E1
:10590000FBF7BAB8FAF746BD024A00201107FBF7C9
:10591000B3B8000001FDFFFF02E008C8121F08C174
:10592000002AFAD170477047002001E001C1121F20
:10593000002AFBD170470000014908607047000051
:105940003C0100202DE9FF5F82B00021DDE9043039
:10595000020DDDF840B0034318D044F61050A2F217
:10596000FF3242431514119801281FD0A5EB0B00FC
:10597000401C5FEA000A4FF000064E4FDFF83891F6
:10598000B046504615D5CAF1000413E01198012421
:105990004AA3012801D16FEA0B010298119AC0E9CC
:1059A0000031C0E9024206B0BDE8F09FCBF1000033
:1059B000DFE704460021404A491842EB0450CDE994
:1059C000001012E0E00707D032463B464046494609
:1059D000FAF787FD8046894632463B46104619460F
:1059E000FAF77FFD06460F466410002CEAD1DDE988
:1059F0000401DDE90023BAF1000F06DAFAF771FDC0
:105A000042464B46FAF76DFD05E0FAF7DCFD4246EB
:105A10004B46FAF7D8FD04460E460022284BFBF70A
:105A200001F803D84FF0FF30014607E00022254B74
:105A300020463146FAF7AEFCFAF7C3FF102409E01E
:105A4000002C0ADB0A220023FAF7D5FE039B303232
:105A50001A55641E50EA0102F2D1641C039AC4F183
:105A600011031444119A012A03D0012208430DD1D5
:105A70000AE0084304D000204FF0110B119072E7A8
:105A8000A3EB0B056D1E0DE05B4504DD4FF000023E
:105A900005F1010504E003DA4FF00002A5F101056C
:105AA000002AECD002981199C0E90231C0E9004502
:105AB00079E70000000014400000F03F30000000D3
:105AC0000000F0430000E03F2DE9FF4F95B09A46FB
:105AD000884606460025EEE1252877D10024274692
